{
  "_format": "hh-sol-artifact-1",
  "contractName": "Splitwise",
  "sourceName": "contracts/mycontract.sol",
  "abi": [
    {
      "inputs": [],
      "stateMutability": "nonpayable",
      "type": "constructor"
    },
    {
      "inputs": [
        {
          "internalType": "address",
          "name": "user",
          "type": "address"
        }
      ],
      "name": "getAllOwingData",
      "outputs": [
        {
          "components": [
            {
              "internalType": "address",
              "name": "ownerAddress",
              "type": "address"
            },
            {
              "internalType": "uint256",
              "name": "amount",
              "type": "uint256"
            }
          ],
          "internalType": "struct Splitwise.Ownership[]",
          "name": "",
          "type": "tuple[]"
        }
      ],
      "stateMutability": "view",
      "type": "function"
    },
    {
      "inputs": [],
      "name": "getParticipant",
      "outputs": [
        {
          "internalType": "address[]",
          "name": "",
          "type": "address[]"
        }
      ],
      "stateMutability": "view",
      "type": "function"
    },
    {
      "inputs": [
        {
          "internalType": "address",
          "name": "debtor",
          "type": "address"
        },
        {
          "internalType": "address",
          "name": "creditor",
          "type": "address"
        },
        {
          "internalType": "uint256",
          "name": "amount",
          "type": "uint256"
        }
      ],
      "name": "iou",
      "outputs": [],
      "stateMutability": "nonpayable",
      "type": "function"
    },
    {
      "inputs": [
        {
          "internalType": "address",
          "name": "debtor",
          "type": "address"
        },
        {
          "internalType": "address",
          "name": "creditor",
          "type": "address"
        }
      ],
      "name": "lookup",
      "outputs": [
        {
          "internalType": "uint256",
          "name": "ret",
          "type": "uint256"
        }
      ],
      "stateMutability": "view",
      "type": "function"
    },
    {
      "inputs": [],
      "name": "owner",
      "outputs": [
        {
          "internalType": "address",
          "name": "",
          "type": "address"
        }
      ],
      "stateMutability": "view",
      "type": "function"
    },
    {
      "inputs": [
        {
          "internalType": "uint256",
          "name": "",
          "type": "uint256"
        }
      ],
      "name": "people",
      "outputs": [
        {
          "internalType": "address",
          "name": "",
          "type": "address"
        }
      ],
      "stateMutability": "view",
      "type": "function"
    }
  ],
  "bytecode": "0x608060405234801561001057600080fd5b50336000806101000a81548173ffffffffffffffffffffffffffffffffffffffff021916908373ffffffffffffffffffffffffffffffffffffffff160217905550611230806100606000396000f3fe608060405234801561001057600080fd5b50600436106100625760003560e01c80631279f7151461006757806314b8786214610083578063713584a6146100a15780638da5cb5b146100d15780639e7a13ad146100ef578063fd0b94ca1461011f575b600080fd5b610081600480360381019061007c9190610dbc565b61014f565b005b61008b610446565b6040516100989190610ecd565b60405180910390f35b6100bb60048036038101906100b69190610eef565b6104d4565b6040516100c89190610f3e565b60405180910390f35b6100d961066f565b6040516100e69190610f68565b60405180910390f35b61010960048036038101906101049190610f83565b610693565b6040516101169190610f68565b60405180910390f35b61013960048036038101906101349190610fb0565b6106d2565b60405161014691906110ca565b60405180910390f35b8173ffffffffffffffffffffffffffffffffffffffff168373ffffffffffffffffffffffffffffffffffffffff160361018757600080fd5b610190836107d0565b610199826107d0565b6101a48383836108e0565b60005b600360008573ffffffffffffffffffffffffffffffffffffffff1673ffffffffffffffffffffffffffffffffffffffff16815260200190815260200160002080549050811015610338578273ffffffffffffffffffffffffffffffffffffffff16600360008673ffffffffffffffffffffffffffffffffffffffff1673ffffffffffffffffffffffffffffffffffffffff1681526020019081526020016000208281548110610259576102586110ec565b5b906000526020600020906002020160000160009054906101000a900473ffffffffffffffffffffffffffffffffffffffff1673ffffffffffffffffffffffffffffffffffffffff16036103255781600360008673ffffffffffffffffffffffffffffffffffffffff1673ffffffffffffffffffffffffffffffffffffffff16815260200190815260200160002082815481106102f8576102f76110ec565b5b90600052602060002090600202016001016000828254610318919061114a565b9250508190555050610441565b80806103309061117e565b9150506101a7565b50610341610cf3565b82816000019073ffffffffffffffffffffffffffffffffffffffff16908173ffffffffffffffffffffffffffffffffffffffff168152505081816020018181525050600360008573ffffffffffffffffffffffffffffffffffffffff1673ffffffffffffffffffffffffffffffffffffffff16815260200190815260200160002081908060018154018082558091505060019003906000526020600020906002020160009091909190915060008201518160000160006101000a81548173ffffffffffffffffffffffffffffffffffffffff021916908373ffffffffffffffffffffffffffffffffffffffff160217905550602082015181600101555050505b505050565b606060018054806020026020016040519081016040528092919081815260200182805480156104ca57602002820191906000526020600020905b8160009054906101000a900473ffffffffffffffffffffffffffffffffffffffff1673ffffffffffffffffffffffffffffffffffffffff1681526020019060010190808311610480575b5050505050905090565b600080600360008573ffffffffffffffffffffffffffffffffffffffff1673ffffffffffffffffffffffffffffffffffffffff168152602001908152602001600020805480602002602001604051908101604052809291908181526020016000905b828210156105c857838290600052602060002090600202016040518060400160405290816000820160009054906101000a900473ffffffffffffffffffffffffffffffffffffffff1673ffffffffffffffffffffffffffffffffffffffff1673ffffffffffffffffffffffffffffffffffffffff16815260200160018201548152505081526020019060010190610536565b50505050905060005b8151811015610666578373ffffffffffffffffffffffffffffffffffffffff16828281518110610604576106036110ec565b5b60200260200101516000015173ffffffffffffffffffffffffffffffffffffffff16036106535781818151811061063e5761063d6110ec565b5b60200260200101516020015192505050610669565b808061065e9061117e565b9150506105d1565b50505b92915050565b60008054906101000a900473ffffffffffffffffffffffffffffffffffffffff1681565b600181815481106106a357600080fd5b906000526020600020016000915054906101000a900473ffffffffffffffffffffffffffffffffffffffff1681565b6060600360008373ffffffffffffffffffffffffffffffffffffffff1673ffffffffffffffffffffffffffffffffffffffff168152602001908152602001600020805480602002602001604051908101604052809291908181526020016000905b828210156107c557838290600052602060002090600202016040518060400160405290816000820160009054906101000a900473ffffffffffffffffffffffffffffffffffffffff1673ffffffffffffffffffffffffffffffffffffffff1673ffffffffffffffffffffffffffffffffffffffff16815260200160018201548152505081526020019060010190610733565b505050509050919050565b600260008273ffffffffffffffffffffffffffffffffffffffff1673ffffffffffffffffffffffffffffffffffffffff16815260200190815260200160002060009054906101000a900460ff166108dd576001819080600181540180825580915050600190039060005260206000200160009091909190916101000a81548173ffffffffffffffffffffffffffffffffffffffff021916908373ffffffffffffffffffffffffffffffffffffffff1602179055506001600260008373ffffffffffffffffffffffffffffffffffffffff1673ffffffffffffffffffffffffffffffffffffffff16815260200190815260200160002060006101000a81548160ff0219169083151502179055505b50565b60005b600360008473ffffffffffffffffffffffffffffffffffffffff1673ffffffffffffffffffffffffffffffffffffffff16815260200190815260200160002080549050811015610cec578373ffffffffffffffffffffffffffffffffffffffff16600360008573ffffffffffffffffffffffffffffffffffffffff1673ffffffffffffffffffffffffffffffffffffffff1681526020019081526020016000208281548110610995576109946110ec565b5b906000526020600020906002020160000160009054906101000a900473ffffffffffffffffffffffffffffffffffffffff1673ffffffffffffffffffffffffffffffffffffffff1603610cd95781600360008573ffffffffffffffffffffffffffffffffffffffff1673ffffffffffffffffffffffffffffffffffffffff1681526020019081526020016000208281548110610a3457610a336110ec565b5b9060005260206000209060020201600101541115610acb5781600360008573ffffffffffffffffffffffffffffffffffffffff1673ffffffffffffffffffffffffffffffffffffffff1681526020019081526020016000208281548110610a9e57610a9d6110ec565b5b90600052602060002090600202016001016000828254610abe91906111c6565b9250508190555050610cee565b81600360008573ffffffffffffffffffffffffffffffffffffffff1673ffffffffffffffffffffffffffffffffffffffff1681526020019081526020016000208281548110610b1d57610b1c6110ec565b5b9060005260206000209060020201600101541015610c41576000600360008573ffffffffffffffffffffffffffffffffffffffff1673ffffffffffffffffffffffffffffffffffffffff1681526020019081526020016000208281548110610b8857610b876110ec565b5b9060005260206000209060020201600101549050600360008573ffffffffffffffffffffffffffffffffffffffff1673ffffffffffffffffffffffffffffffffffffffff1681526020019081526020016000208281548110610bed57610bec6110ec565b5b9060005260206000209060020201600080820160006101000a81549073ffffffffffffffffffffffffffffffffffffffff0219169055600182016000905550508083610c3991906111c6565b925050610cd8565b600360008473ffffffffffffffffffffffffffffffffffffffff1673ffffffffffffffffffffffffffffffffffffffff1681526020019081526020016000208181548110610c9257610c916110ec565b5b9060005260206000209060020201600080820160006101000a81549073ffffffffffffffffffffffffffffffffffffffff02191690556001820160009055505050610cee565b5b8080610ce49061117e565b9150506108e3565b505b505050565b6040518060400160405280600073ffffffffffffffffffffffffffffffffffffffff168152602001600081525090565b600080fd5b600073ffffffffffffffffffffffffffffffffffffffff82169050919050565b6000610d5382610d28565b9050919050565b610d6381610d48565b8114610d6e57600080fd5b50565b600081359050610d8081610d5a565b92915050565b6000819050919050565b610d9981610d86565b8114610da457600080fd5b50565b600081359050610db681610d90565b92915050565b600080600060608486031215610dd557610dd4610d23565b5b6000610de386828701610d71565b9350506020610df486828701610d71565b9250506040610e0586828701610da7565b9150509250925092565b600081519050919050565b600082825260208201905092915050565b6000819050602082019050919050565b610e4481610d48565b82525050565b6000610e568383610e3b565b60208301905092915050565b6000602082019050919050565b6000610e7a82610e0f565b610e848185610e1a565b9350610e8f83610e2b565b8060005b83811015610ec0578151610ea78882610e4a565b9750610eb283610e62565b925050600181019050610e93565b5085935050505092915050565b60006020820190508181036000830152610ee78184610e6f565b905092915050565b60008060408385031215610f0657610f05610d23565b5b6000610f1485828601610d71565b9250506020610f2585828601610d71565b9150509250929050565b610f3881610d86565b82525050565b6000602082019050610f536000830184610f2f565b92915050565b610f6281610d48565b82525050565b6000602082019050610f7d6000830184610f59565b92915050565b600060208284031215610f9957610f98610d23565b5b6000610fa784828501610da7565b91505092915050565b600060208284031215610fc657610fc5610d23565b5b6000610fd484828501610d71565b91505092915050565b600081519050919050565b600082825260208201905092915050565b6000819050602082019050919050565b61101281610d86565b82525050565b60408201600082015161102e6000850182610e3b565b5060208201516110416020850182611009565b50505050565b60006110538383611018565b60408301905092915050565b6000602082019050919050565b600061107782610fdd565b6110818185610fe8565b935061108c83610ff9565b8060005b838110156110bd5781516110a48882611047565b97506110af8361105f565b925050600181019050611090565b5085935050505092915050565b600060208201905081810360008301526110e4818461106c565b905092915050565b7f4e487b7100000000000000000000000000000000000000000000000000000000600052603260045260246000fd5b7f4e487b7100000000000000000000000000000000000000000000000000000000600052601160045260246000fd5b600061115582610d86565b915061116083610d86565b92508282019050808211156111785761117761111b565b5b92915050565b600061118982610d86565b91507fffffffffffffffffffffffffffffffffffffffffffffffffffffffffffffffff82036111bb576111ba61111b565b5b600182019050919050565b60006111d182610d86565b91506111dc83610d86565b92508282039050818111156111f4576111f361111b565b5b9291505056fea26469706673582212200ce483d30ab00debf69f729acf5923600936994843075985622f5bf3a46fc72e64736f6c63430008110033",
  "linkReferences": {},
  "deployedLinkReferences": {}
}